S0130000436F6E74726F6C426F78612E73726563A6
S11300000C942A000C9434000C9434000C943400A6
S11300100C9434000C9434000C9434000C9434008C
S11300200C9434000C9434000C9434000C9434007C
S11300300C9434000C9434000C9434000C9434006C
S11300400C9434000C9434000C9434000C9434005C
S11300500C94340011241FBECFE5D4E0DEBFCDBF25
S11300600E9436000C9452000C94000087B3846004
S113007087BB88B3846088BB2FEF8FE793E421505C
S113008080409040E1F700C0000088B38B7F88BBBC
S11300902FEF8FE793E4215080409040E1F700C0B8
S10B00A00000E7CFF894FFCF44
S9030000FC
