:100000000C942A000C9434000C9434000C943400AA
:100010000C9434000C9434000C9434000C94340090
:100020000C9434000C9434000C9434000C94340080
:100030000C9434000C9434000C9434000C94340070
:100040000C9434000C9434000C9434000C94340060
:100050000C94340011241FBECFE5D4E0DEBFCDBF29
:100060000E9479000C941A020C940000CF93DF9345
:1000700000D0CDB7DEB79A83898380E490E0FC019D
:10008000108280E490E029813A81232F3327FC01FC
:10009000208389E290E02981FC0120838AE290E0BC
:1000A00028E1FC01208380E490E026E8FC01208325
:1000B00000000F900F90DF91CF910895CF93DF93C1
:1000C0001F92CDB7DEB7898300008BE290E0FC0180
:1000D0008081882F90E080729927892BB1F38CE280
:1000E00090E02981FC01208300000F90DF91CF91E7
:1000F0000895CF93DF93CDB7DEB72F970FB6F8945F
:10010000DEBF0FBECDBF81E6898385E090E00E940F
:10011000360081E40E945E0080E090E0A8ECB2E44A
:100120008A839B83AC83BD832DEC3CEC4CE255E48D
:100130006A817B818C819D810E948501DC01CB01DC
:100140008E839F83A887B98720E030E040E85FE393
:100150006E817F81888599850E94FF0088232CF419
:1001600081E090E09B878A873FC020E03FEF4FE728
:1001700057E46E817F81888599850E9480011816D9
:100180004CF520E030E040E251E46A817B818C81D3
:100190009D810E948501DC01CB01BC01CD010E9443
:1001A0000401DC01CB019B878A870FC084E191E0C9
:1001B0009D878C878C859D850197F1F79D878C871E
:1001C0008A859B8501979B878A878A859B85892B52
:1001D00069F714C06E817F81888599850E9404012A
:1001E000DC01CB019B878A878A859B859F878E87C9
:1001F0008E859F850197F1F79F878E878ACF0E9412
:10020000330108F481E008950E945F0188F09F5750
:1002100098F0B92F9927B751B0F0E1F0660F771F2A
:10022000881F991F1AF0BA95C9F714C0B13091F020
:100230000E947901B1E008950C947901672F782F1D
:100240008827B85F39F0B93FCCF3869577956795E5
:10025000B395D9F73EF490958095709561957F4F51
:100260008F4F9F4F0895990F0008550FAA0BE0E894
:10027000FEEF16161706E807F907C0F01216130668
:10028000E407F50798F0621B730B840B950B39F4A8
:100290000A2661F0232B242B252B21F408950A260E
:1002A00009F4A140A6958FEF811D811D089557FD8A
:1002B0009058440F551F59F05F3F71F04795880FD4
:1002C00097FB991F61F09F3F79F08795089512166B
:1002D00013061406551FF2CF4695F1DF08C0161617
:1002E00017061806991FF1CF8695710561050894C8
:1002F0000895E894BB2766277727CB0197F90895DF
:100300000E94330108F48FEF08950E9498010C9425
:1003100009020E94FB0138F00E94020220F095239E
:1003200011F00C94F2010C94F80111240C947A0150
:100330000E94570170F3959FC1F3950F50E0551F30
:10034000629FF001729FBB27F00DB11D639FAA272A
:10035000F00DB11DAA1F649F6627B00DA11D661F79
:10036000829F2227B00DA11D621F739FB00DA11D9A
:10037000621F839FA00D611D221F749F3327A00D54
:10038000611D231F849F600D211D822F762F6A2FF0
:1003900011249F5750409AF0F1F088234AF0EE0F55
:1003A000FF1FBB1F661F771F881F91505040A9F782
:1003B0009E3F510580F00C94F2010C947A015F3F4E
:1003C000E4F3983ED4F3869577956795B795F795BE
:1003D000E7959F5FC1F7FE2B880F911D9695879536
:1003E00097F9089597F99F6780E870E060E00895B5
:1003F0009FEF80EC089500240A941616170618063D
:100400000906089500240A94121613061406050618
:100410000895092E0394000C11F4882352F0BB0FA9
:1004200040F4BF2B11F460FF04C06F5F7F4F8F4F0C
:080430009F4F0895F894FFCFDF
:00000001FF
