S016000041546D656761526573706F6E73652E7372656390
S11300000C942A000C9447000C9447000C9447006D
S11300100C9447000C9447000C9447000C94470040
S11300200C9447000C9447000C9447000C94470030
S11300300C9447000C9447000C9447000C94470020
S11300400C9447000C9447000C9447000C94470010
S11300500C94470011241FBECFE5D4E0DEBFCDBF12
S113006010E0A0E6B0E0EEEFF1E002C005900D92E2
S1130070A236B107D9F720E0A2E6B0E001C01D9294
S1130080A836B207E1F70E94C5000C94FD000C9459
S1130090000087B3856087BB089510BC90BD89B903
S11300A088E18AB986E880BD08955D9BFECF8CB94E
S11300B008955F9BFECF8CB108951ABA16B886E8EE
S11300C086B908958F71806487B986B1806486B9D2
S11300D03699FECF24B185B190E0982F8827822BE2
S11300E00895CF93DF93809167000E946200EC0132
S11300F0809160000E94620040916500509166000A
S1130100BE01641B750B9B0122F422273327261B97
S1130110370B2639310524F0452B21F441E003C087
S113012041E001C040E06091630070916400FC0113
S1130130E61BF70B9F0122F4222733272E1B3F0BCC
S11301402639310524F0672B21F421E003C021E096
S113015001C020E0411102C0213031F0413031F4BE
S1130160222331F020E005C021E003C020E001C0DB
S113017022E0D0936600C09365009093640080935E
S11301806300822FDF91CF91089585E090E00E9473
S11301904D000E945D000E94490010E088B38B7FEF
S11301A088BB0E945900C82F0E9471009091620080
S11301B0891729F0882319F080936200182FCF3310
S11301C019F411110FC012C0CF3629F488B384601A
S11301D088BBDBE60BC0C33641F488B38B7F88BB96
S11301E0DBE604C0D12F10E001C0D1E28D2F0E94C4
S11101F0550088B3846088BBD1CFF894FFCF4C
S10501FE0100FA
S9030000FC
