S019000050686F746F7265736973746F72546573742E73726563E6
S11300000C942A000C9447000C9447000C9447006D
S11300100C9447000C9447000C9447000C94470040
S11300200C9447000C9447000C9447000C94470030
S11300300C9447000C9447000C9447000C94470020
S11300400C9447000C9447000C9447000C94470010
S11300500C94470011241FBECFE5D4E0DEBFCDBF12
S113006010E0A0E6B0E0ECEAFAE002C005900D92E0
S1130070A038B107D9F720E0A0E8B0E001C01D9294
S1130080A638B207E1F70E9422010C9454050C949F
S11300900000CF93DF93CDB7DEB78AE390E0FC0195
S11300A0108286E290E0FC01808186E290E0FC010F
S11300B0108286E290E026E230E0F9012081266891
S11300C0FC01208387E290E0FC01808187E290E0DC
S11300D0FC01108287E290E027E230E0F901208100
S11300E02064FC0120830000DF91CF910895CF9319
S11300F0DF93CDB7DEB72F970FB6F894DEBF0FBEF0
S1130100CDBF8F8787E290E027E230E0F9012081BC
S1130110322F2F852F71232BFC01208386E290E060
S113012026E230E0F90120812064FC0120830000F4
S113013086E290E0FC018081882F90E0807499270A
S1130140892BB1F780E090E0A0E2B1E489839A833F
S1130150AB83BC832DEC3CEC4CE255E469817A81A1
S11301608B819C810E94E101DC01CB018D839E8304
S1130170AF83B88720E030E040E85FE36D817E81A3
S11301808F8198850E945B0188232CF481E090E0A4
S11301909A8789873FC020E03FEF4FE757E46D819E
S11301A07E818F8198850E94DC0118164CF520E031
S11301B030E040E251E469817A818B819C810E9424
S11301C0E101DC01CB01BC01CD010E946001DC0135
S11301D0CB019A8789870FC084E191E09C878B8744
S11301E08B859C850197F1F79C878B8789859A85F8
S11301F001979A87898789859A85892B69F714C01D
S11302006D817E818F8198850E946001DC01CB0124
S11302109A87898789859A859E878D878D859E850E
S11302200197F1F79E878D8784E290E0FC0180813D
S113023091812F960FB6F894DEBF0FBECDBFDF912C
S1130240CF910895CF93DF9300D000D000D0CDB7E5
S1130250DEB780E690E0892F8F9380E690E08F935D
S11302600E9476020F900F900E944900198281E04B
S11302708A8389810E9477009C838B838A810E9470
S113028077009E838D838E818F938D818F938C8154
S11302908F938B818F9386E690E0892F8F9386E6E8
S11302A090E08F930E9476020F900F900F900F9022
S11302B00F900F90DBCF0E948F0108F481E0089526
S11302C00E94BB0188F09F5798F0B92F9927B75126
S11302D0B0F0E1F0660F771F881F991F1AF0BA95E6
S11302E0C9F714C0B13091F00E94D501B1E008956E
S11302F00C94D501672F782F8827B85F39F0B93F60
S1130300CCF3869577956795B395D9F73EF4909598
S11303108095709561957F4F8F4F9F4F0895990FEA
S11303200008550FAA0BE0E8FEEF16161706E807BB
S1130330F907C0F012161306E407F50798F0621BDC
S1130340730B840B950B39F40A2661F0232B242BB1
S1130350252B21F408950A2609F4A140A6958FEFD0
S1130360811D811D089557FD9058440F551F59F064
S11303705F3F71F04795880F97FB991F61F09F3F8E
S113038079F087950895121613061406551FF2CFB7
S11303904695F1DF08C0161617061806991FF1CF07
S11303A086957105610508940895E894BB2766272E
S11303B07727CB0197F908950E948F0108F48FEFF6
S11303C008950E94F4010C9465020E94570238F0CB
S11303D00E945E0220F0952311F00C944E020C94BE
S11303E0540211240C94D6010E94B30170F3959F1A
S11303F0C1F3950F50E0551F629FF001729FBB2718
S1130400F00DB11D639FAA27F00DB11DAA1F649FB3
S11304106627B00DA11D661F829F2227B00DA11D66
S1130420621F739FB00DA11D621F839FA00D611DEC
S1130430221F749F3327A00D611D231F849F600D0D
S1130440211D822F762F6A2F11249F5750409AF036
S1130450F1F088234AF0EE0FFF1FBB1F661F771FC2
S1130460881F91505040A9F79E3F510580F00C948D
S11304704E020C94D6015F3FE4F3983ED4F3869584
S113048077956795B795F795E7959F5FC1F7FE2B2D
S1130490880F911D9695879597F9089597F99F6709
S11304A080E870E060E008959FEF80EC08950024F8
S11304B00A941616170618060906089500240A94C5
S11304C012161306140605060895092E0394000C4B
S11304D011F4882352F0BB0F40F4BF2B11F460FFDA
S11304E004C06F5F7F4F8F4F9F4F0895A0E0B0E02F
S11304F0ECE7F2E00C942D05AE014B5F5F4FFA017F
S113050061917191AF0180918200909183000E946A
S11305108C02E2E00C944905ABE0B0E0E2E9F2E0E1
S11305200C941D056C017B018A01FC011782168263
S1130530838181FFCCC1CE0101963C01F6019381F8
S1130540F70193FD859193FF81917F01882309F43D
S1130550BAC1853239F493FD859193FF81917F016E
S1130560853229F4B60190E00E948304E7CF912CF0
S1130570212C312CFFE1F315D8F08B3279F038F4CB
S1130580803279F08332A1F4232D20611DC08D3295
S113059061F0803369F4232D216016C0832D8260BD
S11305A0382EE32DE4603E2E2AC0F32DF8601DC0E2
S11305B037FC2DC020ED280F2A3040F08E32B9F4DC
S11305C036FC81C1232D2064322E19C036FE06C0AC
S11305D08AE0989E200D1124922E11C0EAE02E9EEE
S11305E0200D1124222EF32DF0623F2E08C08C36EC
S11305F021F4832D8068382E02C0883641F4F70137
S113060093FD859193FF81917F018111B3CF982F41
S11306109F7D9554933028F40C5F1F4F9FE399837B
S11306200DC0833631F0833771F0833509F059C03A
S113063021C0F801808189830E5F1F4F8824839431
S1130640912C530113C02801F2E04F0E511CF80104
S1130650A080B18036FE03C0692D70E002C06FEF48
S11306607FEFC5010E9478044C018201F32DFF77CE
S11306703F2E16C0280122E0420E511CF801A08032
S1130680B18036FE03C0692D70E002C06FEF7FEFCA
S1130690C5010E946D044C01F32DF0683F2E8201C8
S11306A033FC1BC0822D90E088169906B0F4B60185
S11306B080E290E00E9483042A94F4CFF50137FC91
S11306C0859137FE81915F01B60190E00E94830419
S11306D021102A9421E0821A91088114910471F75F
S11306E0E8C0843611F0893641F5F80137FE07C0B9
S11306F060817181828193810C5F1F4F08C060818A
S11307007181072E000C880B990B0E5F1F4FF32D80
S1130710FF763F2E97FF09C090958095709561955F
S11307207F4F8F4F9F4FF0683F2E2AE030E0A301A8
S11307300E94BF04882E861845C0853731F4232DC6
S11307402F7EB22E2AE030E025C0932D997FB92E5A
S11307508F36C1F018F4883579F0B5C0803719F0B8
S1130760883721F0B0C0E92FE061BE2EB4FE0DC081
S1130770FB2DF460BF2E09C034FE0AC0292F266069
S1130780B22E06C028E030E005C020E130E002C00F
S113079020E132E0F801B7FE07C0608171818281F7
S11307A093810C5F1F4F06C06081718180E090E0EF
S11307B00E5F1F4FA3010E94BF04882E8618FB2DD5
S11307C0FF773F2E36FE0DC0232D2E7FA22E8914D7
S11307D058F434FE0BC032FC09C0832D8E7EA82E43
S11307E005C0B82CA32C03C0B82C01C0B92CA4FE9E
S11307F00FC0FE01E80DF11D8081803321F49A2D94
S1130800997EA92E09C0A2FE06C0B394B39404C075
S11308108A2D867809F0B394A3FC11C0A0FE06C00B
S1130820B21488F4280C922C9B180EC0B21460F4F5
S1130830B60180E290E00E948304B394F7CFB2142F
S113084018F42B1802C0982C212CA4FE10C0B60159
S113085080E390E00E948304A2FE17C0A1FC03C0C1
S113086088E790E002C088E590E0B6010CC08A2DCC
S1130870867859F0A1FE02C08BE201C080E2A7FC99
S11308808DE2B60190E00E948304891438F4B60125
S113089080E390E00E9483049A94F7CF8A94F30152
S11308A0E80DF11D8081B60190E00E94830481105F
S11308B0F5CF222009F442CEB60180E290E00E94F6
S11308C083042A94F6CFF6018681978102C08FEFC4
S11308D09FEF2B96E2E10C943905FC0105906150E1
S11308E070400110D8F7809590958E0F9F1F089542
S11308F0FC016150704001900110D8F780959095EB
S11309008E0F9F1F08950F931F93CF93DF93FB01C7
S1130910238121FD03C08FEF9FEF2CC022FF16C05F
S113092046815781248135814217530744F4A081BD
S1130930B1819D012F5F3F4F318320838C932681AA
S113094037812F5F3F4F3783268314C08B01EC011F
S1130950FB010084F185E02D0995892BE1F6D8018E
S113096016968D919C911797019617969C938E934A
S11309701697CE01DF91CF911F910F910895FA013F
S1130980AA27283051F1203181F1E8946F936E7FCA
S11309906E5F7F4F8F4F9F4FAF4FB1E03ED0B4E0BB
S11309A03CD0670F781F891F9A1FA11D680F791FFC
S11309B08A1F911DA11D6A0F711D811D911DA11D0D
S11309C020D009F468943F912AE0269F112430191D
S11309D0305D3193DEF6CF010895462F4770405DB8
S11309E04193B3E00FD0C9F7F6CF462F4F70405D67
S11309F04A3318F0495D31FD4052419302D0A9F7C2
S1130A00EACFB4E0A6959795879577956795BA95BB
S1130A10C9F700976105710508959B01AC010A2E81
S1130A2006945795479537952795BA95C9F7620F58
S1130A30731F841F951FA01D08952F923F924F92FC
S1130A405F926F927F928F929F92AF92BF92CF925A
S1130A50DF92EF92FF920F931F93CF93DF93CDB763
S1130A60DEB7CA1BDB0B0FB6F894DEBF0FBECDBFDB
S1130A7009942A88398848885F846E847D848C84AC
S1130A809B84AA84B984C884DF80EE80FD800C81B5
S1130A901B81AA81B981CE0FD11D0FB6F894DEBF98
S10F0AA00FBECDBFED010895F894FFCF08
S1130AAC55206F6B3F004C6566743A2025642020FA
S1130ABC202D20202052696768743A2025640A008E
S9030000FC
