S019000050686F746F7265736973746F72546573742E73726563E6
S11300000C942A000C9434000C9434000C943400A6
S11300100C9434000C9434000C9434000C9434008C
S11300200C9434000C9434000C9434000C9434007C
S11300300C9434000C9434000C9434000C9434006C
S11300400C9434000C9434000C9434000C9434005C
S11300500C94340011241FBECFE5D4E0DEBFCDBF25
S11300600E9490000C94B1000C940000CF93DF9395
S1130070CDB7DEB78AE390E0FC01108286E290E01F
S1130080FC01108286E290E026E8FC012083000057
S1130090DF91CF910895CF93DF9300D000D01F92CA
S11300A0CDB7DEB78D831A82198287E290E02D8165
S11300B02F712064FC01208386E290E026E230E088
S11300C0F90120812064FC012083000086E290E095
S11300D0FC018081882F90E080749927892BB1F7E7
S11300E084E290E0FC0180818B8385E290E0FC0156
S11300F080818C838C81882F90E0382F22278B81FC
S1130100882F90E0822B932B9A83898389819A810B
S11301100F900F900F900F900F90DF91CF91089553
S1130120CF93DF93CDB7DEB728970FB6F894DEBF31
S11301300FBECDBF198281E08A830E9436001982E6
S113014081E08A8389810E944B009C838B838A810E
S11301500E944B009E838D8385E090E098878F8377
S1090160EECFF894FFCF7E
S9030000FC
