S023000041544D65676153657269616C5472616E736D6974746572546573742E7372656355
S11300000C942A000C9434000C9434000C943400A6
S11300100C9434000C9434000C9434000C9434008C
S11300200C9434000C9434000C9434000C9434007C
S11300300C9434000C9434000C9434000C9434006C
S11300400C9434000C9434000C9434000C9434005C
S11300500C94340011241FBECFE5D4E0DEBFCDBF25
S11300600E948B000C949E000C940000CF93DF93AD
S113007000D0CDB7DEB79A83898380E490E0FC0199
S1130080108280E490E029813A81232F3327FC01F8
S1130090208389E290E02981FC0120838AE290E0B8
S11300A028E1FC01208380E490E026E8FC01208321
S11300B000000F900F90DF91CF910895CF93DF93BD
S11300C01F92CDB7DEB7898300008BE290E0FC017C
S11300D08081882F90E080729927892BB1F38CE27C
S11300E090E02981FC01208300000F90DF91CF91E3
S11300F00895CF93DF93CDB7DEB700008BE290E095
S1130100FC0180818823D4F78CE290E0FC0180819B
S1130110DF91CF910895CF93DF931F92CDB7DEB7D0
S113012085E090E00E9436000E94790089838981ED
S11301308F5F898389810E945E00F6CFF894FFCF98
S9030000FC
