S019000050686F746F7265736973746F72546573742E73726563E6
S11300000C942A000C9434000C9434000C943400A6
S11300100C9434000C9434000C9434000C9434008C
S11300200C9434000C9434000C9434000C9434007C
S11300300C9434000C9434000C9434000C9434006C
S11300400C9434000C9434000C9434000C9434005C
S11300500C94340011241FBECFE5D4E0DEBFCDBF25
S11300600E9490000C9417010C940000CF93DF932E
S1130070CDB7DEB78AE390E0FC01108286E290E01F
S1130080FC01108286E290E026E8FC012083000057
S1130090DF91CF910895CF93DF9300D000D01F92CA
S11300A0CDB7DEB78D831A82198287E290E02D8165
S11300B02F712064FC01208386E290E026E230E088
S11300C0F90120812064FC012083000086E290E095
S11300D0FC018081882F90E080749927892BB1F7E7
S11300E084E290E0FC0180818B8385E290E0FC0156
S11300F080818C838C81882F90E0382F22278B81FC
S1130100882F90E0822B932B9A83898389819A810B
S11301100F900F900F900F900F90DF91CF91089553
S1130120CF93DF93CDB7DEB72E970FB6F894DEBF2B
S11301300FBECDBF198681E08A871C861B861A8272
S113014019821E861D861C821B8281E08D8381E0BC
S11301508E831F8218860E943600198681E08A8762
S113016089850E944B009C878B878A850E944B005F
S11301709E878D872B853C8589819A81A901481B9F
S1130180590BCA0199231CF49195819591098639DB
S113019091052CF089819A81892B09F01D822D8586
S11301A03E858B819C81A901481B590BCA01992367
S11301B01CF4919581959109863991052CF08B81D8
S11301C09C81892B09F01E828D81882341F48E81C4
S11301D0813029F481E08F8381E08D8316C08D8185
S11301E0813041F48E81882329F482E08F8381E079
S11301F08E830BC08D81882341F48E81882329F45A
S11302001F8281E08E838E818D839F8188859817DC
S113021039F08F81882321F08B859C859A8389838B
S11302208D859E859C838B838F81888796CFF89458
S1050230FFCFFA
S9030000FC
