S019000050686F746F7265736973746F72546573742E73726563E6
S11300000C942A000C9434000C9434000C943400A6
S11300100C9434000C9434000C9434000C9434008C
S11300200C9434000C9434000C9434000C9434007C
S11300300C9434000C9434000C9434000C9434006C
S11300400C9434000C9434000C9434000C9434005C
S11300500C94340011241FBECFE5D4E0DEBFCDBF25
S11300600E9490000C940D010C940000CF93DF9338
S1130070CDB7DEB78AE390E0FC01108286E290E01F
S1130080FC01108286E290E026E8FC012083000057
S1130090DF91CF910895CF93DF9300D000D01F92CA
S11300A0CDB7DEB78D831A82198287E290E02D8165
S11300B02F712064FC01208386E290E026E230E088
S11300C0F90120812064FC012083000086E290E095
S11300D0FC018081882F90E080749927892BB1F7E7
S11300E084E290E0FC0180818B8385E290E0FC0156
S11300F080818C838C81882F90E0382F22278B81FC
S1130100882F90E0822B932B9A83898389819A810B
S11301100F900F900F900F900F90DF91CF91089553
S1130120CF93DF93CDB7DEB72D970FB6F894DEBF2C
S11301300FBECDBF1F8281E088871A8619861A8276
S113014019821C861B861C821B8281E08D8381E0C0
S11301508E831D860E9436001F8281E088878F81EE
S11301600E944B009A87898788850E944B009C8750
S11301708B8729853A8589819A81A901481B590B66
S1130180CA0199231CF491958195910986399105A9
S11301902CF089819A81892B09F01D822B853C855D
S11301A08B819C81A901481B590BCA0199231CF41A
S11301B0919581959109863991052CF08B819C81CB
S11301C0892B09F01E828D81882341F48E81813030
S11301D029F481E08D8781E08D8316C08D81813083
S11301E041F48E81882329F482E08D8781E08E8317
S11301F00BC08D81882341F48E81882329F41D86C8
S113020081E08E838E818D8389859A859A83898303
S11102108B859C859C838B839FCFF894FFCFB6
S9030000FC
